{
  "contractName": "MemoryToken",
  "abi": [
    {
      "inputs": [],
      "payable": false,
      "stateMutability": "nonpayable",
      "type": "constructor"
    },
    {
      "anonymous": false,
      "inputs": [
        {
          "indexed": true,
          "internalType": "address",
          "name": "owner",
          "type": "address"
        },
        {
          "indexed": true,
          "internalType": "address",
          "name": "approved",
          "type": "address"
        },
        {
          "indexed": true,
          "internalType": "uint256",
          "name": "tokenId",
          "type": "uint256"
        }
      ],
      "name": "Approval",
      "type": "event"
    },
    {
      "anonymous": false,
      "inputs": [
        {
          "indexed": true,
          "internalType": "address",
          "name": "owner",
          "type": "address"
        },
        {
          "indexed": true,
          "internalType": "address",
          "name": "operator",
          "type": "address"
        },
        {
          "indexed": false,
          "internalType": "bool",
          "name": "approved",
          "type": "bool"
        }
      ],
      "name": "ApprovalForAll",
      "type": "event"
    },
    {
      "anonymous": false,
      "inputs": [
        {
          "indexed": true,
          "internalType": "address",
          "name": "from",
          "type": "address"
        },
        {
          "indexed": true,
          "internalType": "address",
          "name": "to",
          "type": "address"
        },
        {
          "indexed": true,
          "internalType": "uint256",
          "name": "tokenId",
          "type": "uint256"
        }
      ],
      "name": "Transfer",
      "type": "event"
    },
    {
      "constant": false,
      "inputs": [
        {
          "internalType": "address",
          "name": "to",
          "type": "address"
        },
        {
          "internalType": "uint256",
          "name": "tokenId",
          "type": "uint256"
        }
      ],
      "name": "approve",
      "outputs": [],
      "payable": false,
      "stateMutability": "nonpayable",
      "type": "function"
    },
    {
      "constant": true,
      "inputs": [
        {
          "internalType": "address",
          "name": "owner",
          "type": "address"
        }
      ],
      "name": "balanceOf",
      "outputs": [
        {
          "internalType": "uint256",
          "name": "",
          "type": "uint256"
        }
      ],
      "payable": false,
      "stateMutability": "view",
      "type": "function"
    },
    {
      "constant": true,
      "inputs": [
        {
          "internalType": "uint256",
          "name": "tokenId",
          "type": "uint256"
        }
      ],
      "name": "getApproved",
      "outputs": [
        {
          "internalType": "address",
          "name": "",
          "type": "address"
        }
      ],
      "payable": false,
      "stateMutability": "view",
      "type": "function"
    },
    {
      "constant": true,
      "inputs": [
        {
          "internalType": "address",
          "name": "owner",
          "type": "address"
        },
        {
          "internalType": "address",
          "name": "operator",
          "type": "address"
        }
      ],
      "name": "isApprovedForAll",
      "outputs": [
        {
          "internalType": "bool",
          "name": "",
          "type": "bool"
        }
      ],
      "payable": false,
      "stateMutability": "view",
      "type": "function"
    },
    {
      "constant": true,
      "inputs": [],
      "name": "name",
      "outputs": [
        {
          "internalType": "string",
          "name": "",
          "type": "string"
        }
      ],
      "payable": false,
      "stateMutability": "view",
      "type": "function"
    },
    {
      "constant": true,
      "inputs": [
        {
          "internalType": "uint256",
          "name": "tokenId",
          "type": "uint256"
        }
      ],
      "name": "ownerOf",
      "outputs": [
        {
          "internalType": "address",
          "name": "",
          "type": "address"
        }
      ],
      "payable": false,
      "stateMutability": "view",
      "type": "function"
    },
    {
      "constant": false,
      "inputs": [
        {
          "internalType": "address",
          "name": "from",
          "type": "address"
        },
        {
          "internalType": "address",
          "name": "to",
          "type": "address"
        },
        {
          "internalType": "uint256",
          "name": "tokenId",
          "type": "uint256"
        }
      ],
      "name": "safeTransferFrom",
      "outputs": [],
      "payable": false,
      "stateMutability": "nonpayable",
      "type": "function"
    },
    {
      "constant": false,
      "inputs": [
        {
          "internalType": "address",
          "name": "from",
          "type": "address"
        },
        {
          "internalType": "address",
          "name": "to",
          "type": "address"
        },
        {
          "internalType": "uint256",
          "name": "tokenId",
          "type": "uint256"
        },
        {
          "internalType": "bytes",
          "name": "_data",
          "type": "bytes"
        }
      ],
      "name": "safeTransferFrom",
      "outputs": [],
      "payable": false,
      "stateMutability": "nonpayable",
      "type": "function"
    },
    {
      "constant": false,
      "inputs": [
        {
          "internalType": "address",
          "name": "to",
          "type": "address"
        },
        {
          "internalType": "bool",
          "name": "approved",
          "type": "bool"
        }
      ],
      "name": "setApprovalForAll",
      "outputs": [],
      "payable": false,
      "stateMutability": "nonpayable",
      "type": "function"
    },
    {
      "constant": true,
      "inputs": [
        {
          "internalType": "bytes4",
          "name": "interfaceId",
          "type": "bytes4"
        }
      ],
      "name": "supportsInterface",
      "outputs": [
        {
          "internalType": "bool",
          "name": "",
          "type": "bool"
        }
      ],
      "payable": false,
      "stateMutability": "view",
      "type": "function"
    },
    {
      "constant": true,
      "inputs": [],
      "name": "symbol",
      "outputs": [
        {
          "internalType": "string",
          "name": "",
          "type": "string"
        }
      ],
      "payable": false,
      "stateMutability": "view",
      "type": "function"
    },
    {
      "constant": true,
      "inputs": [
        {
          "internalType": "uint256",
          "name": "index",
          "type": "uint256"
        }
      ],
      "name": "tokenByIndex",
      "outputs": [
        {
          "internalType": "uint256",
          "name": "",
          "type": "uint256"
        }
      ],
      "payable": false,
      "stateMutability": "view",
      "type": "function"
    },
    {
      "constant": true,
      "inputs": [
        {
          "internalType": "address",
          "name": "owner",
          "type": "address"
        },
        {
          "internalType": "uint256",
          "name": "index",
          "type": "uint256"
        }
      ],
      "name": "tokenOfOwnerByIndex",
      "outputs": [
        {
          "internalType": "uint256",
          "name": "",
          "type": "uint256"
        }
      ],
      "payable": false,
      "stateMutability": "view",
      "type": "function"
    },
    {
      "constant": true,
      "inputs": [
        {
          "internalType": "uint256",
          "name": "tokenId",
          "type": "uint256"
        }
      ],
      "name": "tokenURI",
      "outputs": [
        {
          "internalType": "string",
          "name": "",
          "type": "string"
        }
      ],
      "payable": false,
      "stateMutability": "view",
      "type": "function"
    },
    {
      "constant": true,
      "inputs": [],
      "name": "totalSupply",
      "outputs": [
        {
          "internalType": "uint256",
          "name": "",
          "type": "uint256"
        }
      ],
      "payable": false,
      "stateMutability": "view",
      "type": "function"
    },
    {
      "constant": false,
      "inputs": [
        {
          "internalType": "address",
          "name": "from",
          "type": "address"
        },
        {
          "internalType": "address",
          "name": "to",
          "type": "address"
        },
        {
          "internalType": "uint256",
          "name": "tokenId",
          "type": "uint256"
        }
      ],
      "name": "transferFrom",
      "outputs": [],
      "payable": false,
      "stateMutability": "nonpayable",
      "type": "function"
    },
    {
      "constant": false,
      "inputs": [
        {
          "internalType": "address",
          "name": "_to",
          "type": "address"
        },
        {
          "internalType": "string",
          "name": "_tokenURI",
          "type": "string"
        }
      ],
      "name": "mint",
      "outputs": [
        {
          "internalType": "bool",
          "name": "",
          "type": "bool"
        }
      ],
      "payable": false,
      "stateMutability": "nonpayable",
      "type": "function"
    }
  ],
  "bytecode": "0x60806040523480156200001157600080fd5b50604080518082018252600c81526b26b2b6b7b93c902a37b5b2b760a11b602080830191909152825180840190935260068352654d454d4f525960d01b90830152908181620000706301ffc9a760e01b6001600160e01b03620000f716565b6200008b6380ac58cd60e01b6001600160e01b03620000f716565b620000a663780e9d6360e01b6001600160e01b03620000f716565b8151620000bb9060099060208501906200017c565b508051620000d190600a9060208401906200017c565b50620000ed635b5e139f60e01b6001600160e01b03620000f716565b5050505062000221565b6001600160e01b0319808216141562000157576040805162461bcd60e51b815260206004820152601c60248201527f4552433136353a20696e76616c696420696e7465726661636520696400000000604482015290519081900360640190fd5b6001600160e01b0319166000908152602081905260409020805460ff19166001179055565b828054600181600116156101000203166002900490600052602060002090601f016020900481019282601f10620001bf57805160ff1916838001178555620001ef565b82800160010185558215620001ef579182015b82811115620001ef578251825591602001919060010190620001d2565b50620001fd92915062000201565b5090565b6200021e91905b80821115620001fd576000815560010162000208565b90565b61175380620002316000396000f3fe608060405234801561001057600080fd5b506004361061010b5760003560e01c80634f6ccce7116100a2578063a22cb46511610071578063a22cb46514610349578063b88d4fde14610377578063c87b56dd1461043d578063d0def5211461045a578063e985e9c5146105105761010b565b80634f6ccce7146102e15780636352211e146102fe57806370a082311461031b57806395d89b41146103415761010b565b806318160ddd116100de57806318160ddd1461022f57806323b872dd146102495780632f745c591461027f57806342842e0e146102ab5761010b565b806301ffc9a71461011057806306fdde031461014b578063081812fc146101c8578063095ea7b314610201575b600080fd5b6101376004803603602081101561012657600080fd5b50356001600160e01b03191661053e565b604080519115158252519081900360200190f35b61015361055d565b6040805160208082528351818301528351919283929083019185019080838360005b8381101561018d578181015183820152602001610175565b50505050905090810190601f1680156101ba5780820380516001836020036101000a031916815260200191505b509250505060405180910390f35b6101e5600480360360208110156101de57600080fd5b50356105f4565b604080516001600160a01b039092168252519081900360200190f35b61022d6004803603604081101561021757600080fd5b506001600160a01b038135169060200135610656565b005b610237610767565b60408051918252519081900360200190f35b61022d6004803603606081101561025f57600080fd5b506001600160a01b0381358116916020810135909116906040013561076d565b6102376004803603604081101561029557600080fd5b506001600160a01b0381351690602001356107c2565b61022d600480360360608110156102c157600080fd5b506001600160a01b03813581169160208101359091169060400135610841565b610237600480360360208110156102f757600080fd5b503561085c565b6101e56004803603602081101561031457600080fd5b50356108c2565b6102376004803603602081101561033157600080fd5b50356001600160a01b031661091c565b610153610984565b61022d6004803603604081101561035f57600080fd5b506001600160a01b03813516906020013515156109e5565b61022d6004803603608081101561038d57600080fd5b6001600160a01b038235811692602081013590911691604082013591908101906080810160608201356401000000008111156103c857600080fd5b8201836020820111156103da57600080fd5b803590602001918460018302840111640100000000831117156103fc57600080fd5b91908080601f016020809104026020016040519081016040528093929190818152602001838380828437600092019190915250929550610ab1945050505050565b6101536004803603602081101561045357600080fd5b5035610b09565b6101376004803603604081101561047057600080fd5b6001600160a01b03823516919081019060408101602082013564010000000081111561049b57600080fd5b8201836020820111156104ad57600080fd5b803590602001918460018302840111640100000000831117156104cf57600080fd5b91908080601f016020809104026020016040519081016040528093929190818152602001838380828437600092019190915250929550610bee945050505050565b6101376004803603604081101561052657600080fd5b506001600160a01b0381358116916020013516610c2a565b6001600160e01b03191660009081526020819052604090205460ff1690565b60098054604080516020601f60026000196101006001881615020190951694909404938401819004810282018101909252828152606093909290918301828280156105e95780601f106105be576101008083540402835291602001916105e9565b820191906000526020600020905b8154815290600101906020018083116105cc57829003601f168201915b505050505090505b90565b60006105ff82610c58565b61063a5760405162461bcd60e51b815260040180806020018281038252602c8152602001806115f1602c913960400191505060405180910390fd5b506000908152600260205260409020546001600160a01b031690565b6000610661826108c2565b9050806001600160a01b0316836001600160a01b031614156106b45760405162461bcd60e51b81526004018080602001828103825260218152602001806116a16021913960400191505060405180910390fd5b336001600160a01b03821614806106d057506106d08133610c2a565b61070b5760405162461bcd60e51b81526004018080602001828103825260388152602001806115666038913960400191505060405180910390fd5b60008281526002602052604080822080546001600160a01b0319166001600160a01b0387811691821790925591518593918516917f8c5be1e5ebec7d5bd14f71427d1e84f3dd0314c0f7b2291e5b200ac8c7c3b92591a4505050565b60075490565b6107773382610c75565b6107b25760405162461bcd60e51b81526004018080602001828103825260318152602001806116c26031913960400191505060405180910390fd5b6107bd838383610d19565b505050565b60006107cd8361091c565b821061080a5760405162461bcd60e51b815260040180806020018281038252602b8152602001806114b9602b913960400191505060405180910390fd5b6001600160a01b038316600090815260056020526040902080548390811061082e57fe5b9060005260206000200154905092915050565b6107bd83838360405180602001604052806000815250610ab1565b6000610866610767565b82106108a35760405162461bcd60e51b815260040180806020018281038252602c8152602001806116f3602c913960400191505060405180910390fd5b600782815481106108b057fe5b90600052602060002001549050919050565b6000818152600160205260408120546001600160a01b0316806109165760405162461bcd60e51b81526004018080602001828103825260298152602001806115c86029913960400191505060405180910390fd5b92915050565b60006001600160a01b0382166109635760405162461bcd60e51b815260040180806020018281038252602a81526020018061159e602a913960400191505060405180910390fd5b6001600160a01b038216600090815260036020526040902061091690610d38565b600a8054604080516020601f60026000196101006001881615020190951694909404938401819004810282018101909252828152606093909290918301828280156105e95780601f106105be576101008083540402835291602001916105e9565b6001600160a01b038216331415610a43576040805162461bcd60e51b815260206004820152601960248201527f4552433732313a20617070726f766520746f2063616c6c657200000000000000604482015290519081900360640190fd5b3360008181526004602090815260408083206001600160a01b03871680855290835292819020805460ff1916861515908117909155815190815290519293927f17307eab39ab6107e8899845ad3d59bd9653f200f220920489ca2b5937696c31929181900390910190a35050565b610abc84848461076d565b610ac884848484610d3c565b610b035760405162461bcd60e51b81526004018080602001828103825260328152602001806114e46032913960400191505060405180910390fd5b50505050565b6060610b1482610c58565b610b4f5760405162461bcd60e51b815260040180806020018281038252602f815260200180611672602f913960400191505060405180910390fd5b6000828152600b602090815260409182902080548351601f600260001961010060018616150201909316929092049182018490048402810184019094528084529091830182828015610be25780601f10610bb757610100808354040283529160200191610be2565b820191906000526020600020905b815481529060010190602001808311610bc557829003601f168201915b50505050509050919050565b600080610c0a6001610bfe610767565b9063ffffffff610e6f16565b9050610c168482610ed0565b610c208184610ef1565b5060019392505050565b6001600160a01b03918216600090815260046020908152604080832093909416825291909152205460ff1690565b6000908152600160205260409020546001600160a01b0316151590565b6000610c8082610c58565b610cbb5760405162461bcd60e51b815260040180806020018281038252602c81526020018061153a602c913960400191505060405180910390fd5b6000610cc6836108c2565b9050806001600160a01b0316846001600160a01b03161480610d015750836001600160a01b0316610cf6846105f4565b6001600160a01b0316145b80610d115750610d118185610c2a565b949350505050565b610d24838383610f54565b610d2e8382611098565b6107bd828261118d565b5490565b6000610d50846001600160a01b03166111cb565b610d5c57506001610d11565b604051630a85bd0160e11b815233600482018181526001600160a01b03888116602485015260448401879052608060648501908152865160848601528651600095928a169463150b7a029490938c938b938b939260a4019060208501908083838e5b83811015610dd6578181015183820152602001610dbe565b50505050905090810190601f168015610e035780820380516001836020036101000a031916815260200191505b5095505050505050602060405180830381600087803b158015610e2557600080fd5b505af1158015610e39573d6000803e3d6000fd5b505050506040513d6020811015610e4f57600080fd5b50516001600160e01b031916630a85bd0160e11b14915050949350505050565b600082820183811015610ec9576040805162461bcd60e51b815260206004820152601b60248201527f536166654d6174683a206164646974696f6e206f766572666c6f770000000000604482015290519081900360640190fd5b9392505050565b610eda82826111d1565b610ee4828261118d565b610eed81611302565b5050565b610efa82610c58565b610f355760405162461bcd60e51b815260040180806020018281038252602c81526020018061161d602c913960400191505060405180910390fd5b6000828152600b6020908152604090912082516107bd92840190611400565b826001600160a01b0316610f67826108c2565b6001600160a01b031614610fac5760405162461bcd60e51b81526004018080602001828103825260298152602001806116496029913960400191505060405180910390fd5b6001600160a01b038216610ff15760405162461bcd60e51b81526004018080602001828103825260248152602001806115166024913960400191505060405180910390fd5b610ffa81611346565b6001600160a01b038316600090815260036020526040902061101b90611383565b6001600160a01b038216600090815260036020526040902061103c9061139a565b60008181526001602052604080822080546001600160a01b0319166001600160a01b0386811691821790925591518493918716917fddf252ad1be2c89b69c2b068fc378daa952ba7f163c4a11628f55a4df523b3ef91a4505050565b6001600160a01b0382166000908152600560205260408120546110c290600163ffffffff6113a316565b60008381526006602052604090205490915080821461115d576001600160a01b03841660009081526005602052604081208054849081106110ff57fe5b906000526020600020015490508060056000876001600160a01b03166001600160a01b03168152602001908152602001600020838154811061113d57fe5b600091825260208083209091019290925591825260069052604090208190555b6001600160a01b038416600090815260056020526040902080549061118690600019830161147e565b5050505050565b6001600160a01b0390911660009081526005602081815260408084208054868652600684529185208290559282526001810183559183529091200155565b3b151590565b6001600160a01b03821661122c576040805162461bcd60e51b815260206004820181905260248201527f4552433732313a206d696e7420746f20746865207a65726f2061646472657373604482015290519081900360640190fd5b61123581610c58565b15611287576040805162461bcd60e51b815260206004820152601c60248201527f4552433732313a20746f6b656e20616c7265616479206d696e74656400000000604482015290519081900360640190fd5b600081815260016020908152604080832080546001600160a01b0319166001600160a01b0387169081179091558352600390915290206112c69061139a565b60405181906001600160a01b038416906000907fddf252ad1be2c89b69c2b068fc378daa952ba7f163c4a11628f55a4df523b3ef908290a45050565b600780546000838152600860205260408120829055600182018355919091527fa66cc928b5edb82af9bd49922954155ab7b0942694bea4ce44661d9a8736c6880155565b6000818152600260205260409020546001600160a01b03161561138057600081815260026020526040902080546001600160a01b03191690555b50565b805461139690600163ffffffff6113a316565b9055565b80546001019055565b6000828211156113fa576040805162461bcd60e51b815260206004820152601e60248201527f536166654d6174683a207375627472616374696f6e206f766572666c6f770000604482015290519081900360640190fd5b50900390565b828054600181600116156101000203166002900490600052602060002090601f016020900481019282601f1061144157805160ff191683800117855561146e565b8280016001018555821561146e579182015b8281111561146e578251825591602001919060010190611453565b5061147a92915061149e565b5090565b8154818355818111156107bd576000838152602090206107bd9181019083015b6105f191905b8082111561147a57600081556001016114a456fe455243373231456e756d657261626c653a206f776e657220696e646578206f7574206f6620626f756e64734552433732313a207472616e7366657220746f206e6f6e20455243373231526563656976657220696d706c656d656e7465724552433732313a207472616e7366657220746f20746865207a65726f20616464726573734552433732313a206f70657261746f7220717565727920666f72206e6f6e6578697374656e7420746f6b656e4552433732313a20617070726f76652063616c6c6572206973206e6f74206f776e6572206e6f7220617070726f76656420666f7220616c6c4552433732313a2062616c616e636520717565727920666f7220746865207a65726f20616464726573734552433732313a206f776e657220717565727920666f72206e6f6e6578697374656e7420746f6b656e4552433732313a20617070726f76656420717565727920666f72206e6f6e6578697374656e7420746f6b656e4552433732314d657461646174613a2055524920736574206f66206e6f6e6578697374656e7420746f6b656e4552433732313a207472616e73666572206f6620746f6b656e2074686174206973206e6f74206f776e4552433732314d657461646174613a2055524920717565727920666f72206e6f6e6578697374656e7420746f6b656e4552433732313a20617070726f76616c20746f2063757272656e74206f776e65724552433732313a207472616e736665722063616c6c6572206973206e6f74206f776e6572206e6f7220617070726f766564455243373231456e756d657261626c653a20676c6f62616c20696e646578206f7574206f6620626f756e6473a265627a7a723158201db06ebfd4775310c6843663c8345018ddb4120442e8ad6580ae9755d737bacb64736f6c63430005110032",
  "source": "pragma solidity ^0.5.0;\n\nimport \"./ERC721Full.sol\";\n\ncontract MemoryToken is ERC721Full {\n\n  constructor() ERC721Full(\"Memory Token\", \"MEMORY\") public {\n  }\n\n  function mint(address _to, string memory _tokenURI) public returns(bool) {\n    uint _tokenId = totalSupply().add(1);\n    _mint(_to, _tokenId);\n    _setTokenURI(_tokenId, _tokenURI);\n    return true;\n  }\n\n}\n",
  "sourcePath": "/Users/leandrofranchi/work/projects/lfr/blockchain/blockchain_game/src/contracts/MemoryToken.sol",
  "compiler": {
    "name": "solc",
    "version": "0.5.17+commit.d19bba13.Emscripten.clang"
  },
  "schemaVersion": "3.4.4",
  "updatedAt": "2022-01-20T19:09:19.112Z",
  "networkType": "ethereum",
  "devdoc": {
    "methods": {
      "approve(address,uint256)": {
        "details": "Approves another address to transfer the given token ID The zero address indicates there is no approved address. There can only be one approved address per token at a given time. Can only be called by the token owner or an approved operator.",
        "params": {
          "to": "address to be approved for the given token ID",
          "tokenId": "uint256 ID of the token to be approved"
        }
      },
      "balanceOf(address)": {
        "details": "Gets the balance of the specified address.",
        "params": {
          "owner": "address to query the balance of"
        },
        "return": "uint256 representing the amount owned by the passed address"
      },
      "getApproved(uint256)": {
        "details": "Gets the approved address for a token ID, or zero if no address set Reverts if the token ID does not exist.",
        "params": {
          "tokenId": "uint256 ID of the token to query the approval of"
        },
        "return": "address currently approved for the given token ID"
      },
      "isApprovedForAll(address,address)": {
        "details": "Tells whether an operator is approved by a given owner.",
        "params": {
          "operator": "operator address which you want to query the approval of",
          "owner": "owner address which you want to query the approval of"
        },
        "return": "bool whether the given operator is approved by the given owner"
      },
      "name()": {
        "details": "Gets the token name.",
        "return": "string representing the token name"
      },
      "ownerOf(uint256)": {
        "details": "Gets the owner of the specified token ID.",
        "params": {
          "tokenId": "uint256 ID of the token to query the owner of"
        },
        "return": "address currently marked as the owner of the given token ID"
      },
      "safeTransferFrom(address,address,uint256)": {
        "details": "Safely transfers the ownership of a given token ID to another address If the target address is a contract, it must implement `onERC721Received`, which is called upon a safe transfer, and return the magic value `bytes4(keccak256(\"onERC721Received(address,address,uint256,bytes)\"))`; otherwise, the transfer is reverted. Requires the msg.sender to be the owner, approved, or operator",
        "params": {
          "from": "current owner of the token",
          "to": "address to receive the ownership of the given token ID",
          "tokenId": "uint256 ID of the token to be transferred"
        }
      },
      "safeTransferFrom(address,address,uint256,bytes)": {
        "details": "Safely transfers the ownership of a given token ID to another address If the target address is a contract, it must implement `onERC721Received`, which is called upon a safe transfer, and return the magic value `bytes4(keccak256(\"onERC721Received(address,address,uint256,bytes)\"))`; otherwise, the transfer is reverted. Requires the msg.sender to be the owner, approved, or operator",
        "params": {
          "_data": "bytes data to send along with a safe transfer check",
          "from": "current owner of the token",
          "to": "address to receive the ownership of the given token ID",
          "tokenId": "uint256 ID of the token to be transferred"
        }
      },
      "setApprovalForAll(address,bool)": {
        "details": "Sets or unsets the approval of a given operator An operator is allowed to transfer all tokens of the sender on their behalf.",
        "params": {
          "approved": "representing the status of the approval to be set",
          "to": "operator address to set the approval"
        }
      },
      "supportsInterface(bytes4)": {
        "details": "See `IERC165.supportsInterface`.     * Time complexity O(1), guaranteed to always use less than 30 000 gas."
      },
      "symbol()": {
        "details": "Gets the token symbol.",
        "return": "string representing the token symbol"
      },
      "tokenByIndex(uint256)": {
        "details": "Gets the token ID at a given index of all the tokens in this contract Reverts if the index is greater or equal to the total number of tokens.",
        "params": {
          "index": "uint256 representing the index to be accessed of the tokens list"
        },
        "return": "uint256 token ID at the given index of the tokens list"
      },
      "tokenOfOwnerByIndex(address,uint256)": {
        "details": "Gets the token ID at a given index of the tokens list of the requested owner.",
        "params": {
          "index": "uint256 representing the index to be accessed of the requested tokens list",
          "owner": "address owning the tokens list to be accessed"
        },
        "return": "uint256 token ID at the given index of the tokens list owned by the requested address"
      },
      "tokenURI(uint256)": {
        "details": "Returns an URI for a given token ID. Throws if the token ID does not exist. May return an empty string.",
        "params": {
          "tokenId": "uint256 ID of the token to query"
        }
      },
      "totalSupply()": {
        "details": "Gets the total amount of tokens stored by the contract.",
        "return": "uint256 representing the total amount of tokens"
      },
      "transferFrom(address,address,uint256)": {
        "details": "Transfers the ownership of a given token ID to another address. Usage of this method is discouraged, use `safeTransferFrom` whenever possible. Requires the msg.sender to be the owner, approved, or operator.",
        "params": {
          "from": "current owner of the token",
          "to": "address to receive the ownership of the given token ID",
          "tokenId": "uint256 ID of the token to be transferred"
        }
      }
    }
  },
  "userdoc": {
    "methods": {}
  }
}